{
  "contractName": "Donation",
  "abi": [
    {
      "inputs": [],
      "payable": false,
      "stateMutability": "nonpayable",
      "type": "constructor"
    },
    {
      "constant": true,
      "inputs": [
        {
          "internalType": "uint256",
          "name": "",
          "type": "uint256"
        }
      ],
      "name": "fundraisers",
      "outputs": [
        {
          "internalType": "address",
          "name": "fundraiserAccount",
          "type": "address"
        },
        {
          "internalType": "uint256",
          "name": "targetAmount",
          "type": "uint256"
        },
        {
          "internalType": "address",
          "name": "beneficiaryAccount",
          "type": "address"
        }
      ],
      "payable": false,
      "stateMutability": "view",
      "type": "function"
    },
    {
      "constant": false,
      "inputs": [
        {
          "internalType": "address payable",
          "name": "fundraiserAccount",
          "type": "address"
        }
      ],
      "name": "donate",
      "outputs": [
        {
          "internalType": "uint256",
          "name": "",
          "type": "uint256"
        }
      ],
      "payable": true,
      "stateMutability": "payable",
      "type": "function"
    },
    {
      "constant": false,
      "inputs": [
        {
          "internalType": "address",
          "name": "_fundraiserAccount",
          "type": "address"
        },
        {
          "internalType": "uint256",
          "name": "_nowFundaiser",
          "type": "uint256"
        }
      ],
      "name": "sendAmountWhenNotAcchieved",
      "outputs": [],
      "payable": false,
      "stateMutability": "nonpayable",
      "type": "function"
    },
    {
      "constant": false,
      "inputs": [
        {
          "internalType": "address",
          "name": "_fundraiserAccount",
          "type": "address"
        },
        {
          "internalType": "address",
          "name": "_beneficiaryAccount",
          "type": "address"
        },
        {
          "internalType": "uint256",
          "name": "_targetAmount",
          "type": "uint256"
        }
      ],
      "name": "createFundraiser",
      "outputs": [],
      "payable": false,
      "stateMutability": "nonpayable",
      "type": "function"
    },
    {
      "constant": true,
      "inputs": [
        {
          "internalType": "uint256",
          "name": "_index",
          "type": "uint256"
        }
      ],
      "name": "showFundraiser",
      "outputs": [
        {
          "internalType": "address",
          "name": "",
          "type": "address"
        },
        {
          "internalType": "uint256",
          "name": "",
          "type": "uint256"
        },
        {
          "internalType": "address",
          "name": "",
          "type": "address"
        }
      ],
      "payable": false,
      "stateMutability": "view",
      "type": "function"
    }
  ],
  "bytecode": "0x608060405234801561001057600080fd5b50600060405180606001604052807342ae8ac9a9d74272fef45f793193e92b4cfaca6a73ffffffffffffffffffffffffffffffffffffffff16815260200168056bc75e2d631000008152602001738008bb9c9de470b88f99afd0f761defc8bc7324573ffffffffffffffffffffffffffffffffffffffff168152509080600181540180825580915050906001820390600052602060002090600302016000909192909190915060008201518160000160006101000a81548173ffffffffffffffffffffffffffffffffffffffff021916908373ffffffffffffffffffffffffffffffffffffffff1602179055506020820151816001015560408201518160020160006101000a81548173ffffffffffffffffffffffffffffffffffffffff021916908373ffffffffffffffffffffffffffffffffffffffff160217905550505050610a6f806101606000396000f3fe6080604052600436106100495760003560e01c8062362a951461004e5780634b4e8d9a146100a65780636fe7cd8614610121578063efffdd201461017c578063f38f72fb14610231575b600080fd5b6100906004803603602081101561006457600080fd5b81019080803573ffffffffffffffffffffffffffffffffffffffff1690602001909291905050506102e6565b6040518082815260200191505060405180910390f35b3480156100b257600080fd5b5061011f600480360360608110156100c957600080fd5b81019080803573ffffffffffffffffffffffffffffffffffffffff169060200190929190803573ffffffffffffffffffffffffffffffffffffffff16906020019092919080359060200190929190505050610709565b005b34801561012d57600080fd5b5061017a6004803603604081101561014457600080fd5b81019080803573ffffffffffffffffffffffffffffffffffffffff1690602001909291908035906020019092919050505061081d565b005b34801561018857600080fd5b506101b56004803603602081101561019f57600080fd5b8101908080359060200190929190505050610821565b604051808473ffffffffffffffffffffffffffffffffffffffff1673ffffffffffffffffffffffffffffffffffffffff1681526020018381526020018273ffffffffffffffffffffffffffffffffffffffff1673ffffffffffffffffffffffffffffffffffffffff168152602001935050505060405180910390f35b34801561023d57600080fd5b5061026a6004803603602081101561025457600080fd5b81019080803590602001909291905050506108cf565b604051808473ffffffffffffffffffffffffffffffffffffffff1673ffffffffffffffffffffffffffffffffffffffff1681526020018381526020018273ffffffffffffffffffffffffffffffffffffffff1673ffffffffffffffffffffffffffffffffffffffff168152602001935050505060405180910390f35b6000808273ffffffffffffffffffffffffffffffffffffffff1631905061030b610946565b600080600090505b600080549050811015610485578573ffffffffffffffffffffffffffffffffffffffff166000828154811061034457fe5b906000526020600020906003020160000160009054906101000a900473ffffffffffffffffffffffffffffffffffffffff1673ffffffffffffffffffffffffffffffffffffffff161415610478576000818154811061039f57fe5b90600052602060002090600302016040518060600160405290816000820160009054906101000a900473ffffffffffffffffffffffffffffffffffffffff1673ffffffffffffffffffffffffffffffffffffffff1673ffffffffffffffffffffffffffffffffffffffff168152602001600182015481526020016002820160009054906101000a900473ffffffffffffffffffffffffffffffffffffffff1673ffffffffffffffffffffffffffffffffffffffff1673ffffffffffffffffffffffffffffffffffffffff16815250509250809150610485565b8080600101915050610313565b506000349050600083602001519050808583011415610695578673ffffffffffffffffffffffffffffffffffffffff166108fc839081150290604051600060405180830381858888f193505050501580156104e4573d6000803e3d6000fd5b506000600160008054905003815481106104fa57fe5b90600052602060002090600302016000848154811061051557fe5b90600052602060002090600302016000820160009054906101000a900473ffffffffffffffffffffffffffffffffffffffff168160000160006101000a81548173ffffffffffffffffffffffffffffffffffffffff021916908373ffffffffffffffffffffffffffffffffffffffff160217905550600182015481600101556002820160009054906101000a900473ffffffffffffffffffffffffffffffffffffffff168160020160006101000a81548173ffffffffffffffffffffffffffffffffffffffff021916908373ffffffffffffffffffffffffffffffffffffffff16021790555090505060006001600080549050038154811061061357fe5b9060005260206000209060030201600080820160006101000a81549073ffffffffffffffffffffffffffffffffffffffff021916905560018201600090556002820160006101000a81549073ffffffffffffffffffffffffffffffffffffffff02191690555050600080548091906001900361068f9190610993565b506106fa565b8085830110156106eb578673ffffffffffffffffffffffffffffffffffffffff166108fc839081150290604051600060405180830381858888f193505050501580156106e5573d6000803e3d6000fd5b506106f9565b600095505050505050610704565b5b6001955050505050505b919050565b600060405180606001604052808573ffffffffffffffffffffffffffffffffffffffff1681526020018381526020018473ffffffffffffffffffffffffffffffffffffffff168152509080600181540180825580915050906001820390600052602060002090600302016000909192909190915060008201518160000160006101000a81548173ffffffffffffffffffffffffffffffffffffffff021916908373ffffffffffffffffffffffffffffffffffffffff1602179055506020820151816001015560408201518160020160006101000a81548173ffffffffffffffffffffffffffffffffffffffff021916908373ffffffffffffffffffffffffffffffffffffffff160217905550505050505050565b5050565b600080600080848154811061083257fe5b906000526020600020906003020160000160009054906101000a900473ffffffffffffffffffffffffffffffffffffffff166000858154811061087157fe5b9060005260206000209060030201600101546000868154811061089057fe5b906000526020600020906003020160020160009054906101000a900473ffffffffffffffffffffffffffffffffffffffff169250925092509193909250565b600081815481106108dc57fe5b90600052602060002090600302016000915090508060000160009054906101000a900473ffffffffffffffffffffffffffffffffffffffff16908060010154908060020160009054906101000a900473ffffffffffffffffffffffffffffffffffffffff16905083565b6040518060600160405280600073ffffffffffffffffffffffffffffffffffffffff16815260200160008152602001600073ffffffffffffffffffffffffffffffffffffffff1681525090565b8154818355818111156109c0576003028160030283600052602060002091820191016109bf91906109c5565b5b505050565b610a3791905b80821115610a3357600080820160006101000a81549073ffffffffffffffffffffffffffffffffffffffff021916905560018201600090556002820160006101000a81549073ffffffffffffffffffffffffffffffffffffffff0219169055506003016109cb565b5090565b9056fea265627a7a723158207bbe3b0cf4cd40134a51089e381245631c13705759432c52543355826374bf1264736f6c63430005100032",
  "source": "// SPDX-License-Identifier: MIT\npragma solidity >=0.4.22 <0.8.0;\n\ncontract Donation {\n    struct Fundraiser {\n        address fundraiserAccount;\n        uint targetAmount;\n        address beneficiaryAccount;\n    }\n\n    Fundraiser[] public fundraisers;\n\n    constructor () public {\n        fundraisers.push(Fundraiser(0x42AE8ac9A9d74272Fef45f793193E92B4CFaca6A, 100000000000000000000, 0x8008bb9c9De470b88F99AfD0F761DEFc8bc73245));\n    }\n\n    function donate(address payable fundraiserAccount) payable public returns (uint){\n        // check not over the targetAmount\n        // ##params : fundraiser_account, amount_to_donate\n        // cur = fundraiser_account.balance\n        // if amount + cur == target\n        // : transfer to fundraiser amount & delete fundraiser from array & transfer target to beneficiary\n        // elif amount + cur < target\n        // : transfer to fundraiser amount\n        // else : error break;\n        uint currentAmount = fundraiserAccount.balance;\n\n        Fundraiser memory fundraiser;\n        uint index;\n\n        for(uint i = 0; i < fundraisers.length; i++){\n            if(fundraisers[i].fundraiserAccount == fundraiserAccount){\n                fundraiser = fundraisers[i];\n                index = i;\n                break;\n            }\n        }\n        uint amount = msg.value;\n        uint targetAmount = fundraiser.targetAmount;\n        if (amount + currentAmount == targetAmount){\n            fundraiserAccount.transfer(amount);\n\n            // delete fundraiser from array\n            fundraisers[index] = fundraisers[fundraisers.length - 1];\n            delete fundraisers[fundraisers.length - 1];\n            fundraisers.length--;\n\n            // transfer target to beneficiary\n        }else if(amount + currentAmount < targetAmount){\n            fundraiserAccount.transfer(amount);\n        }else {\n            //error\n            return 0;\n        }\n        // donate\n        // fundraiser_account.transfer(msg.value);\n        // fundraiser.current_amount += amount;\n\n        // if (fundraiser.current_amount + amount >= fundraiser.target_amount){\n        //     // done \n        //     // transfer all token to beneficiary\n        //     address payable beneficiary_account = address(uint160(fundraiser.beneficiary_account));\n        //     beneficiary_account.transfer(fundraiser.current_amount);\n        //     // delete fundraiser from array\n        //     fundraisers[index] = fundraisers[fundraisers.length - 1];\n        //     delete fundraisers[fundraisers.length - 1];\n        //     fundraisers.length--;\n        // } \n        // uint cur = fundraiser.current_amount;\n        return 1;\n    }\n\n    function sendAmountWhenNotAcchieved(address _fundraiserAccount, uint _nowFundaiser) public {\n\n    }\n\n    function createFundraiser(address _fundraiserAccount, address _beneficiaryAccount,uint _targetAmount)public {\n        fundraisers.push(Fundraiser(_fundraiserAccount, _targetAmount, _beneficiaryAccount ));\n    }\n    \n    function showFundraiser(uint _index) public view returns (address, uint, address) {\n        return (fundraisers[_index].fundraiserAccount, fundraisers[_index].targetAmount, fundraisers[_index].beneficiaryAccount);\n    }\n}",
  "sourcePath": "/home/ether/mini-projects/Donation-blockchain/contracts/Donation.sol",
  "compiler": {
    "name": "solc",
    "version": "0.5.16+commit.9c3226ce.Emscripten.clang"
  },
  "schemaVersion": "3.4.1",
  "updatedAt": "2021-07-21T09:44:48.137Z",
  "networkType": "ethereum",
  "devdoc": {
    "methods": {}
  },
  "userdoc": {
    "methods": {}
  }
}