{
  "contractName": "Donation",
  "abi": [
    {
      "inputs": [],
      "payable": false,
      "stateMutability": "nonpayable",
      "type": "constructor"
    },
    {
      "constant": true,
      "inputs": [
        {
          "internalType": "uint256",
          "name": "",
          "type": "uint256"
        }
      ],
      "name": "fundraisers",
      "outputs": [
        {
          "internalType": "address",
          "name": "fundraiser_account",
          "type": "address"
        },
        {
          "internalType": "uint256",
          "name": "target_amount",
          "type": "uint256"
        },
        {
          "internalType": "uint256",
          "name": "current_amount",
          "type": "uint256"
        },
        {
          "internalType": "address",
          "name": "beneficiary_account",
          "type": "address"
        }
      ],
      "payable": false,
      "stateMutability": "view",
      "type": "function"
    },
    {
      "constant": false,
      "inputs": [
        {
          "internalType": "address payable",
          "name": "fundraiser_account",
          "type": "address"
        }
      ],
      "name": "donate",
      "outputs": [
        {
          "internalType": "uint256",
          "name": "",
          "type": "uint256"
        }
      ],
      "payable": true,
      "stateMutability": "payable",
      "type": "function"
    },
    {
      "constant": false,
      "inputs": [
        {
          "internalType": "address",
          "name": "fundraiser_account",
          "type": "address"
        },
        {
          "internalType": "uint256",
          "name": "now_fundaiser",
          "type": "uint256"
        }
      ],
      "name": "send_amount_when_not_acchieved",
      "outputs": [],
      "payable": false,
      "stateMutability": "nonpayable",
      "type": "function"
    },
    {
      "constant": false,
      "inputs": [
        {
          "internalType": "address",
          "name": "fundraiser_account",
          "type": "address"
        },
        {
          "internalType": "address",
          "name": "beneficiary_account",
          "type": "address"
        },
        {
          "internalType": "uint256",
          "name": "target_amount",
          "type": "uint256"
        }
      ],
      "name": "create_fundraiser",
      "outputs": [],
      "payable": false,
      "stateMutability": "nonpayable",
      "type": "function"
    }
  ],
  "bytecode": "0x608060405234801561001057600080fd5b506000604051806080016040528073eb3909f904d19e2ad7d0a7eb11284c333a9c006173ffffffffffffffffffffffffffffffffffffffff1681526020016064815260200160008152602001738008bb9c9de470b88f99afd0f761defc8bc7324573ffffffffffffffffffffffffffffffffffffffff168152509080600181540180825580915050906001820390600052602060002090600402016000909192909190915060008201518160000160006101000a81548173ffffffffffffffffffffffffffffffffffffffff021916908373ffffffffffffffffffffffffffffffffffffffff160217905550602082015181600101556040820151816002015560608201518160030160006101000a81548173ffffffffffffffffffffffffffffffffffffffff021916908373ffffffffffffffffffffffffffffffffffffffff16021790555050505061053c806101696000396000f3fe60806040526004361061003e5760003560e01c8062362a95146100435780630b5819e11461009b5780635636118214610116578063f38f72fb14610171575b600080fd5b6100856004803603602081101561005957600080fd5b81019080803573ffffffffffffffffffffffffffffffffffffffff16906020019092919050505061022d565b6040518082815260200191505060405180910390f35b3480156100a757600080fd5b50610114600480360360608110156100be57600080fd5b81019080803573ffffffffffffffffffffffffffffffffffffffff169060200190929190803573ffffffffffffffffffffffffffffffffffffffff1690602001909291908035906020019092919050505061042d565b005b34801561012257600080fd5b5061016f6004803603604081101561013957600080fd5b81019080803573ffffffffffffffffffffffffffffffffffffffff16906020019092919080359060200190929190505050610432565b005b34801561017d57600080fd5b506101aa6004803603602081101561019457600080fd5b8101908080359060200190929190505050610436565b604051808573ffffffffffffffffffffffffffffffffffffffff1673ffffffffffffffffffffffffffffffffffffffff1681526020018481526020018381526020018273ffffffffffffffffffffffffffffffffffffffff1673ffffffffffffffffffffffffffffffffffffffff16815260200194505050505060405180910390f35b60006102376104b3565b600080600090505b6000805490508110156103bb578473ffffffffffffffffffffffffffffffffffffffff166000828154811061027057fe5b906000526020600020906004020160000160009054906101000a900473ffffffffffffffffffffffffffffffffffffffff1673ffffffffffffffffffffffffffffffffffffffff1614156103ae57600081815481106102cb57fe5b90600052602060002090600402016040518060800160405290816000820160009054906101000a900473ffffffffffffffffffffffffffffffffffffffff1673ffffffffffffffffffffffffffffffffffffffff1673ffffffffffffffffffffffffffffffffffffffff16815260200160018201548152602001600282015481526020016003820160009054906101000a900473ffffffffffffffffffffffffffffffffffffffff1673ffffffffffffffffffffffffffffffffffffffff1673ffffffffffffffffffffffffffffffffffffffff168152505092508091506103bb565b808060010191505061023f565b5060003490508473ffffffffffffffffffffffffffffffffffffffff166108fc349081150290604051600060405180830381858888f19350505050158015610407573d6000803e3d6000fd5b508083604001818151019150818152505060008360400151905080945050505050919050565b505050565b5050565b6000818154811061044357fe5b90600052602060002090600402016000915090508060000160009054906101000a900473ffffffffffffffffffffffffffffffffffffffff16908060010154908060020154908060030160009054906101000a900473ffffffffffffffffffffffffffffffffffffffff16905084565b6040518060800160405280600073ffffffffffffffffffffffffffffffffffffffff1681526020016000815260200160008152602001600073ffffffffffffffffffffffffffffffffffffffff168152509056fea265627a7a72315820ba144f8cda8efd74f5431edc550b4907e18874a74457f38752bd23780a2870a564736f6c63430005100032",
  "source": "// SPDX-License-Identifier: MIT\npragma solidity >=0.4.22 <0.8.0;\n\ncontract Donation {\n    struct Fundraiser {\n        address fundraiser_account;\n        uint target_amount;\n        uint current_amount;\n        address beneficiary_account;\n    }\n\n    Fundraiser[] public fundraisers;\n\n    constructor () public {\n        fundraisers.push(Fundraiser(0xEb3909f904D19E2ad7D0A7EB11284C333A9C0061, 100, 0,0x8008bb9c9De470b88F99AfD0F761DEFc8bc73245));\n    }\n    function donate(address payable fundraiser_account) payable public returns (uint){\n        // already check the price\n\n        Fundraiser memory fundraiser;\n        uint index;\n\n        for(uint i = 0; i < fundraisers.length; i++){\n            if(fundraisers[i].fundraiser_account == fundraiser_account){\n                fundraiser = fundraisers[i];\n                index = i;\n                break;\n            }\n        }\n        uint amount = msg.value;\n        // donate\n        fundraiser_account.transfer(msg.value);\n        fundraiser.current_amount += amount;\n\n        // if (fundraiser.current_amount + amount >= fundraiser.target_amount){\n        //     // done \n        //     // transfer all token to beneficiary\n        //     address payable beneficiary_account = address(uint160(fundraiser.beneficiary_account));\n        //     beneficiary_account.transfer(fundraiser.current_amount);\n        //     // delete fundraiser from array\n        //     fundraisers[index] = fundraisers[fundraisers.length - 1];\n        //     delete fundraisers[fundraisers.length - 1];\n        //     fundraisers.length--;\n        // } \n        uint cur = fundraiser.current_amount;\n        return cur;\n    }\n\n    function send_amount_when_not_acchieved(address fundraiser_account, uint now_fundaiser) public {\n \n    }\n    \n    function create_fundraiser(address fundraiser_account, address beneficiary_account,uint target_amount)public {\n        \n    }\n}",
  "sourcePath": "/home/ether/mini-projects/Donation-blockchain/contracts/Donation.sol",
  "compiler": {
    "name": "solc",
    "version": "0.5.16+commit.9c3226ce.Emscripten.clang"
  },
  "schemaVersion": "3.4.1",
  "updatedAt": "2021-07-20T13:29:45.292Z",
  "networkType": "ethereum",
  "devdoc": {
    "methods": {}
  },
  "userdoc": {
    "methods": {}
  }
}