{
  "contractName": "Donation",
  "abi": [
    {
      "inputs": [],
      "payable": false,
      "stateMutability": "nonpayable",
      "type": "constructor"
    },
    {
      "constant": true,
      "inputs": [
        {
          "internalType": "uint256",
          "name": "",
          "type": "uint256"
        }
      ],
      "name": "fundraisers",
      "outputs": [
        {
          "internalType": "address",
          "name": "fundraiserAccount",
          "type": "address"
        },
        {
          "internalType": "uint256",
          "name": "targetAmount",
          "type": "uint256"
        },
        {
          "internalType": "address",
          "name": "beneficiaryAccount",
          "type": "address"
        }
      ],
      "payable": false,
      "stateMutability": "view",
      "type": "function"
    },
    {
      "constant": false,
      "inputs": [
        {
          "internalType": "address payable",
          "name": "fundraiserAccount",
          "type": "address"
        },
        {
          "internalType": "uint256",
          "name": "amount",
          "type": "uint256"
        }
      ],
      "name": "donate",
      "outputs": [
        {
          "internalType": "uint256",
          "name": "",
          "type": "uint256"
        }
      ],
      "payable": true,
      "stateMutability": "payable",
      "type": "function"
    },
    {
      "constant": false,
      "inputs": [
        {
          "internalType": "address",
          "name": "_fundraiserAccount",
          "type": "address"
        },
        {
          "internalType": "uint256",
          "name": "_nowFundaiser",
          "type": "uint256"
        }
      ],
      "name": "sendAmountWhenNotAcchieved",
      "outputs": [],
      "payable": false,
      "stateMutability": "nonpayable",
      "type": "function"
    },
    {
      "constant": false,
      "inputs": [
        {
          "internalType": "address",
          "name": "_fundraiserAccount",
          "type": "address"
        },
        {
          "internalType": "address",
          "name": "_beneficiaryAccount",
          "type": "address"
        },
        {
          "internalType": "uint256",
          "name": "_targetAmount",
          "type": "uint256"
        }
      ],
      "name": "createFundraiser",
      "outputs": [],
      "payable": false,
      "stateMutability": "nonpayable",
      "type": "function"
    },
    {
      "constant": true,
      "inputs": [
        {
          "internalType": "uint256",
          "name": "_index",
          "type": "uint256"
        }
      ],
      "name": "showFundraiser",
      "outputs": [
        {
          "internalType": "address",
          "name": "",
          "type": "address"
        },
        {
          "internalType": "uint256",
          "name": "",
          "type": "uint256"
        },
        {
          "internalType": "address",
          "name": "",
          "type": "address"
        }
      ],
      "payable": false,
      "stateMutability": "view",
      "type": "function"
    }
  ],
  "bytecode": "0x608060405234801561001057600080fd5b50600060405180606001604052807342ae8ac9a9d74272fef45f793193e92b4cfaca6a73ffffffffffffffffffffffffffffffffffffffff16815260200168056bc75e2d631000008152602001738008bb9c9de470b88f99afd0f761defc8bc7324573ffffffffffffffffffffffffffffffffffffffff168152509080600181540180825580915050906001820390600052602060002090600302016000909192909190915060008201518160000160006101000a81548173ffffffffffffffffffffffffffffffffffffffff021916908373ffffffffffffffffffffffffffffffffffffffff1602179055506020820151816001015560408201518160020160006101000a81548173ffffffffffffffffffffffffffffffffffffffff021916908373ffffffffffffffffffffffffffffffffffffffff1602179055505050506109e8806101606000396000f3fe60806040526004361061004a5760003560e01c80634b4e8d9a1461004f5780636fe7cd86146100ca578063e69d849d14610125578063efffdd2014610187578063f38f72fb1461023c575b600080fd5b34801561005b57600080fd5b506100c86004803603606081101561007257600080fd5b81019080803573ffffffffffffffffffffffffffffffffffffffff169060200190929190803573ffffffffffffffffffffffffffffffffffffffff169060200190929190803590602001909291905050506102f1565b005b3480156100d657600080fd5b50610123600480360360408110156100ed57600080fd5b81019080803573ffffffffffffffffffffffffffffffffffffffff16906020019092919080359060200190929190505050610405565b005b6101716004803603604081101561013b57600080fd5b81019080803573ffffffffffffffffffffffffffffffffffffffff16906020019092919080359060200190929190505050610409565b6040518082815260200191505060405180910390f35b34801561019357600080fd5b506101c0600480360360208110156101aa57600080fd5b810190808035906020019092919050505061079a565b604051808473ffffffffffffffffffffffffffffffffffffffff1673ffffffffffffffffffffffffffffffffffffffff1681526020018381526020018273ffffffffffffffffffffffffffffffffffffffff1673ffffffffffffffffffffffffffffffffffffffff168152602001935050505060405180910390f35b34801561024857600080fd5b506102756004803603602081101561025f57600080fd5b8101908080359060200190929190505050610848565b604051808473ffffffffffffffffffffffffffffffffffffffff1673ffffffffffffffffffffffffffffffffffffffff1681526020018381526020018273ffffffffffffffffffffffffffffffffffffffff1673ffffffffffffffffffffffffffffffffffffffff168152602001935050505060405180910390f35b600060405180606001604052808573ffffffffffffffffffffffffffffffffffffffff1681526020018381526020018473ffffffffffffffffffffffffffffffffffffffff168152509080600181540180825580915050906001820390600052602060002090600302016000909192909190915060008201518160000160006101000a81548173ffffffffffffffffffffffffffffffffffffffff021916908373ffffffffffffffffffffffffffffffffffffffff1602179055506020820151816001015560408201518160020160006101000a81548173ffffffffffffffffffffffffffffffffffffffff021916908373ffffffffffffffffffffffffffffffffffffffff160217905550505050505050565b5050565b6000808373ffffffffffffffffffffffffffffffffffffffff1631905061042e6108bf565b600080600090505b6000805490508110156105a8578673ffffffffffffffffffffffffffffffffffffffff166000828154811061046757fe5b906000526020600020906003020160000160009054906101000a900473ffffffffffffffffffffffffffffffffffffffff1673ffffffffffffffffffffffffffffffffffffffff16141561059b57600081815481106104c257fe5b90600052602060002090600302016040518060600160405290816000820160009054906101000a900473ffffffffffffffffffffffffffffffffffffffff1673ffffffffffffffffffffffffffffffffffffffff1673ffffffffffffffffffffffffffffffffffffffff168152602001600182015481526020016002820160009054906101000a900473ffffffffffffffffffffffffffffffffffffffff1673ffffffffffffffffffffffffffffffffffffffff1673ffffffffffffffffffffffffffffffffffffffff168152505092508091506105a8565b8080600101915050610436565b50600082602001519050808487011415610774576000600160008054905003815481106105d157fe5b9060005260206000209060030201600083815481106105ec57fe5b90600052602060002090600302016000820160009054906101000a900473ffffffffffffffffffffffffffffffffffffffff168160000160006101000a81548173ffffffffffffffffffffffffffffffffffffffff021916908373ffffffffffffffffffffffffffffffffffffffff160217905550600182015481600101556002820160009054906101000a900473ffffffffffffffffffffffffffffffffffffffff168160020160006101000a81548173ffffffffffffffffffffffffffffffffffffffff021916908373ffffffffffffffffffffffffffffffffffffffff1602179055509050506000600160008054905003815481106106ea57fe5b9060005260206000209060030201600080820160006101000a81549073ffffffffffffffffffffffffffffffffffffffff021916905560018201600090556002820160006101000a81549073ffffffffffffffffffffffffffffffffffffffff021916905550506000805480919060019003610766919061090c565b506002945050505050610794565b80848701101561078b576001945050505050610794565b60009450505050505b92915050565b60008060008084815481106107ab57fe5b906000526020600020906003020160000160009054906101000a900473ffffffffffffffffffffffffffffffffffffffff16600085815481106107ea57fe5b9060005260206000209060030201600101546000868154811061080957fe5b906000526020600020906003020160020160009054906101000a900473ffffffffffffffffffffffffffffffffffffffff169250925092509193909250565b6000818154811061085557fe5b90600052602060002090600302016000915090508060000160009054906101000a900473ffffffffffffffffffffffffffffffffffffffff16908060010154908060020160009054906101000a900473ffffffffffffffffffffffffffffffffffffffff16905083565b6040518060600160405280600073ffffffffffffffffffffffffffffffffffffffff16815260200160008152602001600073ffffffffffffffffffffffffffffffffffffffff1681525090565b81548183558181111561093957600302816003028360005260206000209182019101610938919061093e565b5b505050565b6109b091905b808211156109ac57600080820160006101000a81549073ffffffffffffffffffffffffffffffffffffffff021916905560018201600090556002820160006101000a81549073ffffffffffffffffffffffffffffffffffffffff021916905550600301610944565b5090565b9056fea265627a7a72315820bd8a0000d82d833958bba8f015eee99a34810ccf6aafe7137f1048aacf80ee5264736f6c63430005100032",
  "source": "// SPDX-License-Identifier: MIT\npragma solidity >=0.4.22 <0.8.0;\n\ncontract Donation {\n    struct Fundraiser {\n        address fundraiserAccount;\n        uint targetAmount;\n        address beneficiaryAccount;\n    }\n\n    Fundraiser[] public fundraisers;\n\n    constructor () public {\n        fundraisers.push(Fundraiser(0x42AE8ac9A9d74272Fef45f793193E92B4CFaca6A, 100000000000000000000, 0x8008bb9c9De470b88F99AfD0F761DEFc8bc73245));\n    }\n\n    function donate(address payable fundraiserAccount, uint amount) payable public returns (uint){\n        // check not over the targetAmount\n        // ##params : fundraiser_account, amount_to_donate\n        // cur = fundraiser_account.balance\n        // if amount + cur == target\n        // : transfer to fundraiser amount & delete fundraiser from array & transfer target to beneficiary\n        // elif amount + cur < target\n        // : transfer to fundraiser amount\n        // else : error break;\n        uint currentAmount = fundraiserAccount.balance;\n\n        Fundraiser memory fundraiser;\n        uint index;\n\n        for(uint i = 0; i < fundraisers.length; i++){\n            if(fundraisers[i].fundraiserAccount == fundraiserAccount){\n                fundraiser = fundraisers[i];\n                index = i;\n                break;\n            }\n        }\n\n        uint targetAmount = fundraiser.targetAmount;\n        if (amount + currentAmount == targetAmount){\n\n            // delete fundraiser from array\n            fundraisers[index] = fundraisers[fundraisers.length - 1];\n            delete fundraisers[fundraisers.length - 1];\n            fundraisers.length--;\n\n            // fundraiserAccount.transfer(amount);\n            // transfer target to beneficiary\n            return 2;\n        }else if(amount + currentAmount < targetAmount){\n            // fundraiserAccount.transfer(amount);\n            return 1;\n        }else {\n            //error\n            return 0;\n        }\n        // donate\n        // fundraiser_account.transfer(msg.value);\n        // fundraiser.current_amount += amount;\n\n        // if (fundraiser.current_amount + amount >= fundraiser.target_amount){\n        //     // done \n        //     // transfer all token to beneficiary\n        //     address payable beneficiary_account = address(uint160(fundraiser.beneficiary_account));\n        //     beneficiary_account.transfer(fundraiser.current_amount);\n        //     // delete fundraiser from array\n        //     fundraisers[index] = fundraisers[fundraisers.length - 1];\n        //     delete fundraisers[fundraisers.length - 1];\n        //     fundraisers.length--;\n        // } \n        // uint cur = fundraiser.current_amount;\n    }\n\n    function sendAmountWhenNotAcchieved(address _fundraiserAccount, uint _nowFundaiser) public {\n\n    }\n\n    function createFundraiser(address _fundraiserAccount, address _beneficiaryAccount,uint _targetAmount)public {\n        fundraisers.push(Fundraiser(_fundraiserAccount, _targetAmount, _beneficiaryAccount ));\n    }\n    \n    function showFundraiser(uint _index) public view returns (address, uint, address) {\n        return (fundraisers[_index].fundraiserAccount, fundraisers[_index].targetAmount, fundraisers[_index].beneficiaryAccount);\n    }\n}",
  "sourcePath": "/home/ether/mini-projects/Donation-blockchain/contracts/Donation.sol",
  "compiler": {
    "name": "solc",
    "version": "0.5.16+commit.9c3226ce.Emscripten.clang"
  },
  "schemaVersion": "3.4.1",
  "updatedAt": "2021-07-21T11:30:48.238Z",
  "networkType": "ethereum",
  "devdoc": {
    "methods": {}
  },
  "userdoc": {
    "methods": {}
  }
}