{
  "contractName": "Donation",
  "abi": [
    {
      "inputs": [],
      "payable": false,
      "stateMutability": "nonpayable",
      "type": "constructor"
    },
    {
      "anonymous": false,
      "inputs": [
        {
          "indexed": false,
          "internalType": "uint8",
          "name": "action",
          "type": "uint8"
        }
      ],
      "name": "ActionEvent",
      "type": "event"
    },
    {
      "anonymous": false,
      "inputs": [
        {
          "indexed": true,
          "internalType": "address",
          "name": "donator",
          "type": "address"
        },
        {
          "indexed": true,
          "internalType": "address",
          "name": "fundraiser",
          "type": "address"
        },
        {
          "indexed": false,
          "internalType": "uint256",
          "name": "amount",
          "type": "uint256"
        }
      ],
      "name": "DonationEvent",
      "type": "event"
    },
    {
      "constant": true,
      "inputs": [
        {
          "internalType": "uint256",
          "name": "",
          "type": "uint256"
        }
      ],
      "name": "fundraisers",
      "outputs": [
        {
          "internalType": "address",
          "name": "fundraiserAccount",
          "type": "address"
        },
        {
          "internalType": "uint256",
          "name": "targetAmount",
          "type": "uint256"
        },
        {
          "internalType": "address",
          "name": "beneficiaryAccount",
          "type": "address"
        }
      ],
      "payable": false,
      "stateMutability": "view",
      "type": "function"
    },
    {
      "constant": false,
      "inputs": [
        {
          "internalType": "address",
          "name": "fundraiserAccount",
          "type": "address"
        },
        {
          "internalType": "uint256",
          "name": "amount",
          "type": "uint256"
        }
      ],
      "name": "donate",
      "outputs": [
        {
          "internalType": "uint256",
          "name": "",
          "type": "uint256"
        }
      ],
      "payable": false,
      "stateMutability": "nonpayable",
      "type": "function"
    },
    {
      "constant": false,
      "inputs": [],
      "name": "updateTimestamp",
      "outputs": [],
      "payable": false,
      "stateMutability": "nonpayable",
      "type": "function"
    },
    {
      "constant": true,
      "inputs": [],
      "name": "monthHavePassed",
      "outputs": [
        {
          "internalType": "bool",
          "name": "",
          "type": "bool"
        }
      ],
      "payable": false,
      "stateMutability": "view",
      "type": "function"
    },
    {
      "constant": false,
      "inputs": [
        {
          "internalType": "address",
          "name": "_fundraiserAccount",
          "type": "address"
        },
        {
          "internalType": "address",
          "name": "_beneficiaryAccount",
          "type": "address"
        },
        {
          "internalType": "uint256",
          "name": "_targetAmount",
          "type": "uint256"
        }
      ],
      "name": "createFundraiser",
      "outputs": [
        {
          "internalType": "uint256",
          "name": "",
          "type": "uint256"
        }
      ],
      "payable": false,
      "stateMutability": "nonpayable",
      "type": "function"
    },
    {
      "constant": true,
      "inputs": [
        {
          "internalType": "uint256",
          "name": "_index",
          "type": "uint256"
        }
      ],
      "name": "showFundraiser",
      "outputs": [
        {
          "internalType": "address",
          "name": "",
          "type": "address"
        },
        {
          "internalType": "uint256",
          "name": "",
          "type": "uint256"
        },
        {
          "internalType": "address",
          "name": "",
          "type": "address"
        }
      ],
      "payable": false,
      "stateMutability": "view",
      "type": "function"
    }
  ],
  "bytecode": "0x608060405234801561001057600080fd5b5061099d806100206000396000f3fe608060405234801561001057600080fd5b50600436106100625760003560e01c80631c5be3d7146100675780633a8a386a146100715780634b4e8d9a14610093578063e69d849d14610115578063efffdd2014610177578063f38f72fb1461021f575b600080fd5b61006f6102c7565b005b6100796102d0565b604051808215151515815260200191505060405180910390f35b6100ff600480360360608110156100a957600080fd5b81019080803573ffffffffffffffffffffffffffffffffffffffff169060200190929190803573ffffffffffffffffffffffffffffffffffffffff169060200190929190803590602001909291905050506102e2565b6040518082815260200191505060405180910390f35b6101616004803603604081101561012b57600080fd5b81019080803573ffffffffffffffffffffffffffffffffffffffff1690602001909291908035906020019092919050505061043f565b6040518082815260200191505060405180910390f35b6101a36004803603602081101561018d57600080fd5b81019080803590602001909291905050506107f6565b604051808473ffffffffffffffffffffffffffffffffffffffff1673ffffffffffffffffffffffffffffffffffffffff1681526020018381526020018273ffffffffffffffffffffffffffffffffffffffff1673ffffffffffffffffffffffffffffffffffffffff168152602001935050505060405180910390f35b61024b6004803603602081101561023557600080fd5b81019080803590602001909291905050506108a4565b604051808473ffffffffffffffffffffffffffffffffffffffff1673ffffffffffffffffffffffffffffffffffffffff1681526020018381526020018273ffffffffffffffffffffffffffffffffffffffff1673ffffffffffffffffffffffffffffffffffffffff168152602001935050505060405180910390f35b42600181905550565b600062278d0060015401421015905090565b60006102ec61091b565b84816000019073ffffffffffffffffffffffffffffffffffffffff16908173ffffffffffffffffffffffffffffffffffffffff168152505083816040019073ffffffffffffffffffffffffffffffffffffffff16908173ffffffffffffffffffffffffffffffffffffffff1681525050828160200181815250506000819080600181540180825580915050906001820390600052602060002090600302016000909192909190915060008201518160000160006101000a81548173ffffffffffffffffffffffffffffffffffffffff021916908373ffffffffffffffffffffffffffffffffffffffff1602179055506020820151816001015560408201518160020160006101000a81548173ffffffffffffffffffffffffffffffffffffffff021916908373ffffffffffffffffffffffffffffffffffffffff1602179055505050506000805490509150509392505050565b6000808373ffffffffffffffffffffffffffffffffffffffff1631905061046461091b565b600080600090505b6000805490508110156105de578673ffffffffffffffffffffffffffffffffffffffff166000828154811061049d57fe5b906000526020600020906003020160000160009054906101000a900473ffffffffffffffffffffffffffffffffffffffff1673ffffffffffffffffffffffffffffffffffffffff1614156105d157600081815481106104f857fe5b90600052602060002090600302016040518060600160405290816000820160009054906101000a900473ffffffffffffffffffffffffffffffffffffffff1673ffffffffffffffffffffffffffffffffffffffff1673ffffffffffffffffffffffffffffffffffffffff168152602001600182015481526020016002820160009054906101000a900473ffffffffffffffffffffffffffffffffffffffff1673ffffffffffffffffffffffffffffffffffffffff1673ffffffffffffffffffffffffffffffffffffffff168152505092508091506105de565b808060010191505061046c565b50600082602001519050808487011415610700578673ffffffffffffffffffffffffffffffffffffffff163373ffffffffffffffffffffffffffffffffffffffff167fa331a215da78eb19ca576721f6168748fae1889031e0aae34045eb991ca0b26f886040518082815260200191505060405180910390a3826040015173ffffffffffffffffffffffffffffffffffffffff168773ffffffffffffffffffffffffffffffffffffffff167fa331a215da78eb19ca576721f6168748fae1889031e0aae34045eb991ca0b26f836040518082815260200191505060405180910390a37fdec1fb7279fd80c4124d1ad9506f8318159932e087e0a3390d756bab7c39e3256002604051808260ff16815260200191505060405180910390a16107ec565b8084870110156107af578673ffffffffffffffffffffffffffffffffffffffff163373ffffffffffffffffffffffffffffffffffffffff167fa331a215da78eb19ca576721f6168748fae1889031e0aae34045eb991ca0b26f886040518082815260200191505060405180910390a37fdec1fb7279fd80c4124d1ad9506f8318159932e087e0a3390d756bab7c39e3256001604051808260ff16815260200191505060405180910390a16107eb565b7fdec1fb7279fd80c4124d1ad9506f8318159932e087e0a3390d756bab7c39e3256000604051808260ff16815260200191505060405180910390a15b5b5050505092915050565b600080600080848154811061080757fe5b906000526020600020906003020160000160009054906101000a900473ffffffffffffffffffffffffffffffffffffffff166000858154811061084657fe5b9060005260206000209060030201600101546000868154811061086557fe5b906000526020600020906003020160020160009054906101000a900473ffffffffffffffffffffffffffffffffffffffff169250925092509193909250565b600081815481106108b157fe5b90600052602060002090600302016000915090508060000160009054906101000a900473ffffffffffffffffffffffffffffffffffffffff16908060010154908060020160009054906101000a900473ffffffffffffffffffffffffffffffffffffffff16905083565b6040518060600160405280600073ffffffffffffffffffffffffffffffffffffffff16815260200160008152602001600073ffffffffffffffffffffffffffffffffffffffff168152509056fea265627a7a7231582098e257143fd032682280e08675e4c97a5973b3aff2d0c13997aed264cf3d2df864736f6c63430005100032",
  "source": "// SPDX-License-Identifier: MIT\npragma solidity >=0.4.22 <0.8.0;\n\ncontract Donation {\n    \n    struct Fundraiser {\n        address fundraiserAccount;\n        uint targetAmount;\n        address beneficiaryAccount;\n    }\n\n    Fundraiser[] public fundraisers;\n    event DonationEvent (address indexed donator, address indexed fundraiser, uint amount);\n    event ActionEvent(uint8 action);\n        \n    constructor () public {\n        // fundraisers.push(Fundraiser(0x42AE8ac9A9d74272Fef45f793193E92B4CFaca6A, 100000000000000000000, 0x8008bb9c9De470b88F99AfD0F761DEFc8bc73245));\n    }\n\n    function donate(address fundraiserAccount, uint amount) public returns (uint){\n        // check not over the targetAmount\n        // ##params : fundraiser_account, amount_to_donate\n        // cur = fundraiser_account.balance\n        // if amount + cur == target\n        // : transfer to fundraiser amount & delete fundraiser from array & transfer target to beneficiary\n        // elif amount + cur < target\n        // : transfer to fundraiser amount\n        // else : error break;\n        uint currentAmount = fundraiserAccount.balance;\n\n        Fundraiser memory fundraiser;\n        uint index;\n\n        for(uint i = 0; i < fundraisers.length; i++){\n            if(fundraisers[i].fundraiserAccount == fundraiserAccount){\n                fundraiser = fundraisers[i];\n                index = i;\n                break;\n            }\n        }\n\n        uint targetAmount = fundraiser.targetAmount;\n        if (amount + currentAmount == targetAmount){\n\n            // delete fundraiser from array\n            // fundraisers[index] = fundraisers[fundraisers.length - 1];\n            // delete fundraisers[fundraisers.length - 1];\n            // fundraisers.length--;\n\n            // fundraiserAccount.transfer(amount);\n            // transfer target to beneficiary\n            emit DonationEvent(msg.sender, fundraiserAccount, amount);\n            emit DonationEvent(fundraiserAccount, fundraiser.beneficiaryAccount, targetAmount);\n            emit ActionEvent(2);\n        }else if(amount + currentAmount < targetAmount){\n            // fundraiserAccount.transfer(amount);\n            emit DonationEvent(msg.sender, fundraiserAccount, amount);\n            emit ActionEvent(1);\n        }else {\n            //error\n            emit ActionEvent(0);\n        }\n\n    }\n\n    // Development using now that can display the current time in Solidity\n    uint lastUpdated;\n    //set lastupdated to now\n    function updateTimestamp() public {\n        lastUpdated = now;\n    }\n    //true if 30 days have passed since the last updateTimestamp was called, false if not yet\n    function monthHavePassed() public view returns (bool) {\n        return (now >= (lastUpdated + 30 days));\n    }\n\n    function createFundraiser(address _fundraiserAccount, address _beneficiaryAccount, uint _targetAmount) public returns (uint) {\n        Fundraiser memory fundraiser;\n        fundraiser.fundraiserAccount = _fundraiserAccount;\n        fundraiser.beneficiaryAccount = _beneficiaryAccount;\n        fundraiser.targetAmount = _targetAmount;\n        fundraisers.push(fundraiser);\n        return fundraisers.length;\n    }\n    \n    function showFundraiser(uint _index) public view returns (address, uint, address) {\n        return (fundraisers[_index].fundraiserAccount, fundraisers[_index].targetAmount, fundraisers[_index].beneficiaryAccount);\n    }\n}",
  "sourcePath": "/home/ether/mini-projects/Donation-blockchain/contracts/Donation.sol",
  "compiler": {
    "name": "solc",
    "version": "0.5.16+commit.9c3226ce.Emscripten.clang"
  },
  "schemaVersion": "3.4.1",
  "updatedAt": "2021-07-23T05:05:54.691Z",
  "networkType": "ethereum",
  "devdoc": {
    "methods": {}
  },
  "userdoc": {
    "methods": {}
  }
}