{
  "contractName": "Donation",
  "abi": [
    {
      "inputs": [],
      "payable": false,
      "stateMutability": "nonpayable",
      "type": "constructor"
    },
    {
      "constant": true,
      "inputs": [
        {
          "internalType": "uint256",
          "name": "",
          "type": "uint256"
        }
      ],
      "name": "fundraisers",
      "outputs": [
        {
          "internalType": "address",
          "name": "fundraiserAccount",
          "type": "address"
        },
        {
          "internalType": "uint256",
          "name": "targetAmount",
          "type": "uint256"
        },
        {
          "internalType": "address",
          "name": "beneficiaryAccount",
          "type": "address"
        }
      ],
      "payable": false,
      "stateMutability": "view",
      "type": "function"
    },
    {
      "constant": false,
      "inputs": [
        {
          "internalType": "address",
          "name": "_fundraiserAccount",
          "type": "address"
        },
        {
          "internalType": "uint256",
          "name": "_nowFundaiser",
          "type": "uint256"
        }
      ],
      "name": "sendAmountWhenNotAcchieved",
      "outputs": [],
      "payable": false,
      "stateMutability": "nonpayable",
      "type": "function"
    },
    {
      "constant": false,
      "inputs": [
        {
          "internalType": "address",
          "name": "_fundraiserAccount",
          "type": "address"
        },
        {
          "internalType": "address",
          "name": "_beneficiaryAccount",
          "type": "address"
        },
        {
          "internalType": "uint256",
          "name": "_targetAmount",
          "type": "uint256"
        }
      ],
      "name": "createFundraiser",
      "outputs": [],
      "payable": false,
      "stateMutability": "nonpayable",
      "type": "function"
    },
    {
      "constant": true,
      "inputs": [
        {
          "internalType": "uint256",
          "name": "_index",
          "type": "uint256"
        }
      ],
      "name": "showFundraiser",
      "outputs": [
        {
          "internalType": "address",
          "name": "",
          "type": "address"
        },
        {
          "internalType": "uint256",
          "name": "",
          "type": "uint256"
        },
        {
          "internalType": "address",
          "name": "",
          "type": "address"
        }
      ],
      "payable": false,
      "stateMutability": "view",
      "type": "function"
    }
  ],
  "bytecode": "0x608060405234801561001057600080fd5b506000604051806060016040528073eb3909f904d19e2ad7d0a7eb11284c333a9c006173ffffffffffffffffffffffffffffffffffffffff16815260200160648152602001738008bb9c9de470b88f99afd0f761defc8bc7324573ffffffffffffffffffffffffffffffffffffffff168152509080600181540180825580915050906001820390600052602060002090600302016000909192909190915060008201518160000160006101000a81548173ffffffffffffffffffffffffffffffffffffffff021916908373ffffffffffffffffffffffffffffffffffffffff1602179055506020820151816001015560408201518160020160006101000a81548173ffffffffffffffffffffffffffffffffffffffff021916908373ffffffffffffffffffffffffffffffffffffffff1602179055505050506104cf806101586000396000f3fe608060405234801561001057600080fd5b506004361061004c5760003560e01c80634b4e8d9a146100515780636fe7cd86146100bf578063efffdd201461010d578063f38f72fb146101b5575b600080fd5b6100bd6004803603606081101561006757600080fd5b81019080803573ffffffffffffffffffffffffffffffffffffffff169060200190929190803573ffffffffffffffffffffffffffffffffffffffff1690602001909291908035906020019092919050505061025d565b005b61010b600480360360408110156100d557600080fd5b81019080803573ffffffffffffffffffffffffffffffffffffffff16906020019092919080359060200190929190505050610371565b005b6101396004803603602081101561012357600080fd5b8101908080359060200190929190505050610375565b604051808473ffffffffffffffffffffffffffffffffffffffff1673ffffffffffffffffffffffffffffffffffffffff1681526020018381526020018273ffffffffffffffffffffffffffffffffffffffff1673ffffffffffffffffffffffffffffffffffffffff168152602001935050505060405180910390f35b6101e1600480360360208110156101cb57600080fd5b8101908080359060200190929190505050610423565b604051808473ffffffffffffffffffffffffffffffffffffffff1673ffffffffffffffffffffffffffffffffffffffff1681526020018381526020018273ffffffffffffffffffffffffffffffffffffffff1673ffffffffffffffffffffffffffffffffffffffff168152602001935050505060405180910390f35b600060405180606001604052808573ffffffffffffffffffffffffffffffffffffffff1681526020018381526020018473ffffffffffffffffffffffffffffffffffffffff168152509080600181540180825580915050906001820390600052602060002090600302016000909192909190915060008201518160000160006101000a81548173ffffffffffffffffffffffffffffffffffffffff021916908373ffffffffffffffffffffffffffffffffffffffff1602179055506020820151816001015560408201518160020160006101000a81548173ffffffffffffffffffffffffffffffffffffffff021916908373ffffffffffffffffffffffffffffffffffffffff160217905550505050505050565b5050565b600080600080848154811061038657fe5b906000526020600020906003020160000160009054906101000a900473ffffffffffffffffffffffffffffffffffffffff16600085815481106103c557fe5b906000526020600020906003020160010154600086815481106103e457fe5b906000526020600020906003020160020160009054906101000a900473ffffffffffffffffffffffffffffffffffffffff169250925092509193909250565b6000818154811061043057fe5b90600052602060002090600302016000915090508060000160009054906101000a900473ffffffffffffffffffffffffffffffffffffffff16908060010154908060020160009054906101000a900473ffffffffffffffffffffffffffffffffffffffff1690508356fea265627a7a723158202a1a20bdde8ef2507b916b5879fb9e70050c741e4171d5a87ff6d88b003ffd3864736f6c63430005100032",
  "source": "// SPDX-License-Identifier: MIT\npragma solidity >=0.4.22 <0.8.0;\n\ncontract Donation {\n    struct Fundraiser {\n        address fundraiserAccount;\n        uint targetAmount;\n        address beneficiaryAccount;\n    }\n\n    Fundraiser[] public fundraisers;\n\n    constructor () public {\n        fundraisers.push(Fundraiser(0xEb3909f904D19E2ad7D0A7EB11284C333A9C0061, 100,0x8008bb9c9De470b88F99AfD0F761DEFc8bc73245));\n    }\n\n    // function donate(address payable fundraiser_account) payable public returns (uint){\n    //     // already check the price\n\n    //     Fundraiser memory fundraiser;\n    //     uint index;\n\n    //     for(uint i = 0; i < fundraisers.length; i++){\n    //         if(fundraisers[i].fundraiser_account == fundraiser_account){\n    //             fundraiser = fundraisers[i];\n    //             index = i;\n    //             break;\n    //         }\n    //     }\n    //     uint amount = msg.value;\n    //     // donate\n    //     fundraiser_account.transfer(msg.value);\n    //     fundraiser.current_amount += amount;\n\n    //     if (fundraiser.current_amount + amount >= fundraiser.target_amount){\n    //         // done \n    //         // transfer all token to beneficiary\n    //         address payable beneficiary_account = address(uint160(fundraiser.beneficiary_account));\n    //         beneficiary_account.transfer(fundraiser.current_amount);\n    //         // delete fundraiser from array\n    //         fundraisers[index] = fundraisers[fundraisers.length - 1];\n    //         delete fundraisers[fundraisers.length - 1];\n    //         fundraisers.length--;\n    //     } \n    //     uint cur = fundraiser.current_amount;\n    //     return cur;\n    // }\n\n    function sendAmountWhenNotAcchieved(address _fundraiserAccount, uint _nowFundaiser) public {\n\n    }\n\n    function createFundraiser(address _fundraiserAccount, address _beneficiaryAccount,uint _targetAmount)public {\n        fundraisers.push(Fundraiser(_fundraiserAccount, _targetAmount, _beneficiaryAccount ));\n    }\n    \n    function showFundraiser(uint _index) public view returns (address, uint, address) {\n        return (fundraisers[_index].fundraiserAccount, fundraisers[_index].targetAmount, fundraisers[_index].beneficiaryAccount);\n    }\n}",
  "sourcePath": "/home/ether/mini-projects/Donation-blockchain/contracts/Donation.sol",
  "compiler": {
    "name": "solc",
    "version": "0.5.16+commit.9c3226ce.Emscripten.clang"
  },
  "schemaVersion": "3.4.1",
  "updatedAt": "2021-07-21T05:53:32.774Z",
  "networkType": "ethereum",
  "devdoc": {
    "methods": {}
  },
  "userdoc": {
    "methods": {}
  }
}