{
  "contractName": "Donation",
  "abi": [
    {
      "inputs": [],
      "payable": false,
      "stateMutability": "nonpayable",
      "type": "constructor"
    },
    {
      "anonymous": false,
      "inputs": [
        {
          "indexed": true,
          "internalType": "address",
          "name": "donator",
          "type": "address"
        },
        {
          "indexed": true,
          "internalType": "address",
          "name": "fundraiser",
          "type": "address"
        },
        {
          "indexed": false,
          "internalType": "uint256",
          "name": "amount",
          "type": "uint256"
        }
      ],
      "name": "DonationEvent",
      "type": "event"
    },
    {
      "constant": true,
      "inputs": [
        {
          "internalType": "uint256",
          "name": "",
          "type": "uint256"
        }
      ],
      "name": "fundraisers",
      "outputs": [
        {
          "internalType": "address",
          "name": "fundraiserAccount",
          "type": "address"
        },
        {
          "internalType": "uint256",
          "name": "targetAmount",
          "type": "uint256"
        },
        {
          "internalType": "address",
          "name": "beneficiaryAccount",
          "type": "address"
        }
      ],
      "payable": false,
      "stateMutability": "view",
      "type": "function"
    },
    {
      "constant": false,
      "inputs": [
        {
          "internalType": "address payable",
          "name": "fundraiserAccount",
          "type": "address"
        },
        {
          "internalType": "uint256",
          "name": "amount",
          "type": "uint256"
        }
      ],
      "name": "donate",
      "outputs": [
        {
          "internalType": "uint256",
          "name": "",
          "type": "uint256"
        }
      ],
      "payable": true,
      "stateMutability": "payable",
      "type": "function"
    },
    {
      "constant": false,
      "inputs": [],
      "name": "updateTimestamp",
      "outputs": [],
      "payable": false,
      "stateMutability": "nonpayable",
      "type": "function"
    },
    {
      "constant": true,
      "inputs": [],
      "name": "monthHavePassed",
      "outputs": [
        {
          "internalType": "bool",
          "name": "",
          "type": "bool"
        }
      ],
      "payable": false,
      "stateMutability": "view",
      "type": "function"
    },
    {
      "constant": false,
      "inputs": [
        {
          "internalType": "address",
          "name": "_fundraiserAccount",
          "type": "address"
        },
        {
          "internalType": "address",
          "name": "_beneficiaryAccount",
          "type": "address"
        },
        {
          "internalType": "uint256",
          "name": "_targetAmount",
          "type": "uint256"
        }
      ],
      "name": "createFundraiser",
      "outputs": [
        {
          "internalType": "uint256",
          "name": "",
          "type": "uint256"
        }
      ],
      "payable": false,
      "stateMutability": "nonpayable",
      "type": "function"
    },
    {
      "constant": true,
      "inputs": [
        {
          "internalType": "uint256",
          "name": "_index",
          "type": "uint256"
        }
      ],
      "name": "showFundraiser",
      "outputs": [
        {
          "internalType": "address",
          "name": "",
          "type": "address"
        },
        {
          "internalType": "uint256",
          "name": "",
          "type": "uint256"
        },
        {
          "internalType": "address",
          "name": "",
          "type": "address"
        }
      ],
      "payable": false,
      "stateMutability": "view",
      "type": "function"
    }
  ],
  "bytecode": "0x608060405234801561001057600080fd5b50610b1c806100206000396000f3fe6080604052600436106100555760003560e01c80631c5be3d71461005a5780633a8a386a146100715780634b4e8d9a146100a0578063e69d849d1461012f578063efffdd2014610191578063f38f72fb14610246575b600080fd5b34801561006657600080fd5b5061006f6102fb565b005b34801561007d57600080fd5b50610086610304565b604051808215151515815260200191505060405180910390f35b3480156100ac57600080fd5b50610119600480360360608110156100c357600080fd5b81019080803573ffffffffffffffffffffffffffffffffffffffff169060200190929190803573ffffffffffffffffffffffffffffffffffffffff16906020019092919080359060200190929190505050610316565b6040518082815260200191505060405180910390f35b61017b6004803603604081101561014557600080fd5b81019080803573ffffffffffffffffffffffffffffffffffffffff16906020019092919080359060200190929190505050610473565b6040518082815260200191505060405180910390f35b34801561019d57600080fd5b506101ca600480360360208110156101b457600080fd5b81019080803590602001909291905050506108ce565b604051808473ffffffffffffffffffffffffffffffffffffffff1673ffffffffffffffffffffffffffffffffffffffff1681526020018381526020018273ffffffffffffffffffffffffffffffffffffffff1673ffffffffffffffffffffffffffffffffffffffff168152602001935050505060405180910390f35b34801561025257600080fd5b5061027f6004803603602081101561026957600080fd5b810190808035906020019092919050505061097c565b604051808473ffffffffffffffffffffffffffffffffffffffff1673ffffffffffffffffffffffffffffffffffffffff1681526020018381526020018273ffffffffffffffffffffffffffffffffffffffff1673ffffffffffffffffffffffffffffffffffffffff168152602001935050505060405180910390f35b42600181905550565b600062278d0060015401421015905090565b60006103206109f3565b84816000019073ffffffffffffffffffffffffffffffffffffffff16908173ffffffffffffffffffffffffffffffffffffffff168152505083816040019073ffffffffffffffffffffffffffffffffffffffff16908173ffffffffffffffffffffffffffffffffffffffff1681525050828160200181815250506000819080600181540180825580915050906001820390600052602060002090600302016000909192909190915060008201518160000160006101000a81548173ffffffffffffffffffffffffffffffffffffffff021916908373ffffffffffffffffffffffffffffffffffffffff1602179055506020820151816001015560408201518160020160006101000a81548173ffffffffffffffffffffffffffffffffffffffff021916908373ffffffffffffffffffffffffffffffffffffffff1602179055505050506000805490509150509392505050565b6000808373ffffffffffffffffffffffffffffffffffffffff163190506104986109f3565b600080600090505b600080549050811015610612578673ffffffffffffffffffffffffffffffffffffffff16600082815481106104d157fe5b906000526020600020906003020160000160009054906101000a900473ffffffffffffffffffffffffffffffffffffffff1673ffffffffffffffffffffffffffffffffffffffff161415610605576000818154811061052c57fe5b90600052602060002090600302016040518060600160405290816000820160009054906101000a900473ffffffffffffffffffffffffffffffffffffffff1673ffffffffffffffffffffffffffffffffffffffff1673ffffffffffffffffffffffffffffffffffffffff168152602001600182015481526020016002820160009054906101000a900473ffffffffffffffffffffffffffffffffffffffff1673ffffffffffffffffffffffffffffffffffffffff1673ffffffffffffffffffffffffffffffffffffffff16815250509250809150610612565b80806001019150506104a0565b506000826020015190508084870114156108435760006001600080549050038154811061063b57fe5b90600052602060002090600302016000838154811061065657fe5b90600052602060002090600302016000820160009054906101000a900473ffffffffffffffffffffffffffffffffffffffff168160000160006101000a81548173ffffffffffffffffffffffffffffffffffffffff021916908373ffffffffffffffffffffffffffffffffffffffff160217905550600182015481600101556002820160009054906101000a900473ffffffffffffffffffffffffffffffffffffffff168160020160006101000a81548173ffffffffffffffffffffffffffffffffffffffff021916908373ffffffffffffffffffffffffffffffffffffffff16021790555090505060006001600080549050038154811061075457fe5b9060005260206000209060030201600080820160006101000a81549073ffffffffffffffffffffffffffffffffffffffff021916905560018201600090556002820160006101000a81549073ffffffffffffffffffffffffffffffffffffffff0219169055505060008054809190600190036107d09190610a40565b508673ffffffffffffffffffffffffffffffffffffffff163373ffffffffffffffffffffffffffffffffffffffff167fa331a215da78eb19ca576721f6168748fae1889031e0aae34045eb991ca0b26f886040518082815260200191505060405180910390a360029450505050506108c8565b8084870110156108bf578673ffffffffffffffffffffffffffffffffffffffff163373ffffffffffffffffffffffffffffffffffffffff167fa331a215da78eb19ca576721f6168748fae1889031e0aae34045eb991ca0b26f886040518082815260200191505060405180910390a360019450505050506108c8565b60009450505050505b92915050565b60008060008084815481106108df57fe5b906000526020600020906003020160000160009054906101000a900473ffffffffffffffffffffffffffffffffffffffff166000858154811061091e57fe5b9060005260206000209060030201600101546000868154811061093d57fe5b906000526020600020906003020160020160009054906101000a900473ffffffffffffffffffffffffffffffffffffffff169250925092509193909250565b6000818154811061098957fe5b90600052602060002090600302016000915090508060000160009054906101000a900473ffffffffffffffffffffffffffffffffffffffff16908060010154908060020160009054906101000a900473ffffffffffffffffffffffffffffffffffffffff16905083565b6040518060600160405280600073ffffffffffffffffffffffffffffffffffffffff16815260200160008152602001600073ffffffffffffffffffffffffffffffffffffffff1681525090565b815481835581811115610a6d57600302816003028360005260206000209182019101610a6c9190610a72565b5b505050565b610ae491905b80821115610ae057600080820160006101000a81549073ffffffffffffffffffffffffffffffffffffffff021916905560018201600090556002820160006101000a81549073ffffffffffffffffffffffffffffffffffffffff021916905550600301610a78565b5090565b9056fea265627a7a72315820b766fdc2f07a993e0ee43c27020aa7348cc89db13edb5f68612ed46df468a66f64736f6c63430005100032",
  "source": "// SPDX-License-Identifier: MIT\npragma solidity >=0.4.22 <0.8.0;\n\ncontract Donation {\n    \n    struct Fundraiser {\n        address fundraiserAccount;\n        uint targetAmount;\n        address beneficiaryAccount;\n    }\n\n    Fundraiser[] public fundraisers;\n    event DonationEvent (address indexed donator, address indexed fundraiser, uint amount);\n        \n    constructor () public {\n        // fundraisers.push(Fundraiser(0x42AE8ac9A9d74272Fef45f793193E92B4CFaca6A, 100000000000000000000, 0x8008bb9c9De470b88F99AfD0F761DEFc8bc73245));\n    }\n\n    function donate(address payable fundraiserAccount, uint amount) payable public returns (uint){\n        // check not over the targetAmount\n        // ##params : fundraiser_account, amount_to_donate\n        // cur = fundraiser_account.balance\n        // if amount + cur == target\n        // : transfer to fundraiser amount & delete fundraiser from array & transfer target to beneficiary\n        // elif amount + cur < target\n        // : transfer to fundraiser amount\n        // else : error break;\n        uint currentAmount = fundraiserAccount.balance;\n\n        Fundraiser memory fundraiser;\n        uint index;\n\n        for(uint i = 0; i < fundraisers.length; i++){\n            if(fundraisers[i].fundraiserAccount == fundraiserAccount){\n                fundraiser = fundraisers[i];\n                index = i;\n                break;\n            }\n        }\n\n        uint targetAmount = fundraiser.targetAmount;\n        if (amount + currentAmount == targetAmount){\n\n            // delete fundraiser from array\n            fundraisers[index] = fundraisers[fundraisers.length - 1];\n            delete fundraisers[fundraisers.length - 1];\n            fundraisers.length--;\n\n            // fundraiserAccount.transfer(amount);\n            // transfer target to beneficiary\n            emit DonationEvent(msg.sender, fundraiserAccount, amount);\n            return 2;\n        }else if(amount + currentAmount < targetAmount){\n            // fundraiserAccount.transfer(amount);\n            emit DonationEvent(msg.sender, fundraiserAccount, amount);\n            return 1;\n        }else {\n            //error\n            return 0;\n        }\n\n    }\n\n    // Development using now that can display the current time in Solidity\n    uint lastUpdated;\n    //set lastupdated to now\n    function updateTimestamp() public {\n        lastUpdated = now;\n    }\n    //true if 30 days have passed since the last updateTimestamp was called, false if not yet\n    function monthHavePassed() public view returns (bool) {\n        return (now >= (lastUpdated + 30 days));\n    }\n    // function sendAmountWhenNotAcchieved() public {\n    //     if(now >= (lastUpdated + 30 days)) {\n    //         do sendTransation;\n    //     }\n    // }\n\n    function createFundraiser(address _fundraiserAccount, address _beneficiaryAccount, uint _targetAmount) public returns (uint) {\n        Fundraiser memory fundraiser;\n        fundraiser.fundraiserAccount = _fundraiserAccount;\n        fundraiser.beneficiaryAccount = _beneficiaryAccount;\n        fundraiser.targetAmount = _targetAmount;\n        fundraisers.push(fundraiser);\n        return fundraisers.length;\n    }\n    \n    function showFundraiser(uint _index) public view returns (address, uint, address) {\n        return (fundraisers[_index].fundraiserAccount, fundraisers[_index].targetAmount, fundraisers[_index].beneficiaryAccount);\n    }\n}",
  "sourcePath": "/home/ether/mini-projects/Donation-blockchain/contracts/Donation.sol",
  "compiler": {
    "name": "solc",
    "version": "0.5.16+commit.9c3226ce.Emscripten.clang"
  },
  "schemaVersion": "3.4.1",
  "updatedAt": "2021-07-22T09:43:52.395Z",
  "networkType": "ethereum",
  "devdoc": {
    "methods": {}
  },
  "userdoc": {
    "methods": {}
  }
}